:080000000000000000000000F8
:080008000000000000000000F0
:080010000000000000000000E8
:080018000000000000000000E0
:080020000000000000000000D8
:080028000000000000000000D0
:080030000000000000000000C8
:080038000000000000000000C0
:080040000000000000000000B8
:080048000000000000000000B0
:080050000000000000000000A8
:080058000000000000000000A0
:08006000000000000000000098
:08006800000000000000000090
:08007000000000000000000088
:08007800000000000000000080
:08008000FF0C3700FE0C060026
:080088001302320014023300E0
:080090001502340016023500D0
:08009800C0091102360012023A
:0800A000A40F4307650A1302D7
:0800A8006F0F4307650A140203
:0800B000AD0F4307650A1502BC
:0800B8009F0F4307650A1602C1
:0800C0000F0F4307650A180445
:0800C8007A0A1202DA0F430765
:0800D000440A1302090F430763
:0800D800440A14024A0F430719
:0800E000440A1502060F430754
:0800E800440A16020F0F430742
:0800F000440A1805BE091102C3
:0800F800A00F43077A0ABE09BC
:080100001102B00F43077A0A57
:08010800BE091102000F4307BC
:08011000440ABE091102000FB0
:080118004307440ABE09BE09B9
:080120001102600F43068F0A73
:08012800D00F4307440AAE09A1
:080130002604FC0C0600260465
:08013800B9091806A60AB30973
:080140002605B909B909FE0CFE
:080148000600440AB90926056E
:08015000B3092604B909FE0CF5
:080158000600440A2607AE0A66
:080160002606B00A0008B909E7
:08016800B909B909B909B90987
:08017000B909160CD701430781
:08017800BA0A00081806D00ABB
:08018000AE09210CBA09080CBC
:08018800300003042606030504
:080190003103150CBA09F0025D
:08019800C50A0E0CBA090008AB
:0801A000AE09210CBA09080C9C
:0801A8003000030426070305E3
:0801B0007103150CBA09F002FD
:0801B800D50ACD0AFF0FFF0F6D
:080800000000040003000000E9
:021FFE001100D0
:00000001FF
;PIC12C509
