:020000001028C6
:08000800AE00030EAF0048201A
:080010002F0E8300AE0E2E0E30
:020018000900DD
:0800200083166400E830810042
:08002800FE308500FF30860068
:080030008312810185018601A4
:080038000D309A000C30840029
:080040008901831608148312E4
:0800480008088000840A890AFF
:080050009A0B21288316081207
:080058000811831290308B00A7
:080060008316881830280812ED
:08006800081183121B1C302853
:080070009B010C308900180807
:080078008800831608158B13A4
:0800800055308900AA30890007
:0800880088148B178312302845
:080090008B184D2810308B0085
:0800980008008312051486180C
:0800A0005D2801089F008101A9
:0800A80055301F02031D5B2807
:0800B000023098001B148B10B4
:0800B8000800010899009C00FA
:0800C0009D0060301C020319D1
:0800C8007C2803187C289D0C24
:0800D0009D0C9D0C0F309D05F5
:0800D8001D080C3E8400000825
:0800E0009E0007309C05031986
:0800E80078289E0D9C0B752881
:0800F0009E1F05108B10080093
:0800F800861F8428861C842861
:08010000980A1B148B10080083
:08010800603099021808990209
:08011000031C8B2805108B1065
:020118000800DD
:084000004200420042004200B0
:02400E000100AF
:084200004281110033225544F4
:064208007766841100023C
:00000001FF
