:100000004F090309010A07054909070449096B005B
:100010002B054B04F00CCB012700300930094705B4
:1000200000083D098705A70530094309300937094C
:10003000300987043009670030093009E7053009C5
:10004000670030098705300967003009C705A70533
:1000500030096700E7053009670030092705000807
:100060000000670500000000670400000008800C25
:1000700028000000E802390A0008640C290037094A
:10008000E9023F0A00081E0C2A003709EA02450A65
:100090000008C80C29004309E9024B0A00080F0CAC
:1000A0000500000C070067006B000E0C4300FF0CFE
:0600B00020001109000808
:0420200008007E0432
:00000001FF
