:1000000064090309010A4705000852098705A70585
:100010004709580947094C0947094C09870447090A
:100020004C09460947096700C70547094C094609B5
:1000300067004709E70547094C0946096700470972
:10004000870547094C09460967004709C705A70501
:1000500047094C09460967004709E705C705A70591
:1000600047094C09460967004709C705A70547091D
:100070004C09460967002705C70547092705C70436
:100080004709E7054C0946092705000800086705E8
:100090000000580967040008800C28000000E802EE
:1000A0004E0A0008640C29004C09E902540A0008B1
:1000B0001E0C2A004C09EA025A0A0008FF0C29000B
:1000C0005809E902600A00080F0C0500000C07003F
:0800D00067006B000509000840
:0420200008007E0432
:00000001FF
