:1000000000000000000000000000000000000000F0
:1000100000000000000000000000000000000000E0
:1000200000000000000000000000000000000000D0
:1000300000000000000000000000000000000000C0
:1000400000000000000000000000000000000000B0
:1000500000000000000000000000000000000000A0
:100060000000000000000000000000000000000090
:100070000000000000000000000000000000000080
:10008000FF0C3700FE0C060013023200140233008E
:100090001502340016023500C6091102360012029C
:1000A000A40F4307650A13026F0F4307650A140282
:1000B000AD0F4307650A15029F0F4307650A160235
:1000C0000F0F4307650A18047A0A1202DA0F430772
:1000D000440A1302090F4307440A14024A0F430754
:1000E000440A1502060F4307440A16020F0F43077E
:1000F000440A1805C4091102A00F43077A0AC4096B
:100100001102B00F43077A0AC4091102000F430716
:10011000440AC4091102000F4307440AC409C40970
:100120001102600F43068F0AD00F4307440AB40937
:100130002604FC0C06002604BF091806AA0A260598
:10014000BF092604BA092605BF092604BF09FE0C0B
:100150000600B30ABF092605BA092604BF09260509
:10016000BF09FE0C0600440A2607B40A2606B60A92
:100170000008BF09BF09BF09BF09BF09BF09160CA5
:10018000D7014307C00A00081806D60AB409210C93
:10019000C009080C30000304260603053103150CC2
:1001A000C009F002CB0A0E0CC0090008B409210CEA
:1001B000C009080C30000304260703057103150C61
:1001C000C009F002DB0AD30AFF0FFF0FFF0FFF0F7A
:1001D000FF0FFF0FFF0FFF0FFF0FFF0FFF0FFF0FAF
:1001E000FF0FFF0FFF0FFF0FFF0FFF0FFF0FFF0F9F
:1001F000FF0FFF0FFF0FFF0FFF0FFF0FFF0FFF0F8F
:10020000FF0FFF0FFF0FFF0FFF0FFF0FFF0FFF0F7E
:1003F000FF0FFF0FFF0FFF0FFF0FFF0FFF0F700C1F
:080400000F000F000F000F00B8
:021FFE00FD3FA5
:00000001FF
