:1000000004001800A806150905020F0E3800430465
:100010001A02980043060E0018023A00080543042D
:100020000F0C9800430608040E0061001B00F60246
:10003000200AF502200A1800A8040805010C3E0059
:1000400018000D001800140C2B00FF0C37000000E6
:10005000F702270AEB02270A0D00180061000807C3
:100060000D0058060D0003047E03010C9E063E00A1
:1000700008040D001800610008070D0078060D0047
:100080000804FE07450AFE040D00FE050D00610090
:1000900008070D0038060D0003047B037C03010CE8
:1000A00003063B00BD02480C9D0143067D00400C49
:1000B0007D06FD017D0408040D00610008070D00A8
:1000C00018060D00190508040D000A0C8A014306E4
:1000D0006A000A0C890143066900010C7F063F0093
:1000E0009B070D00010C3B007C007D000D00A3056B
:1000F000C30553091F065A0C3F06570C5F06480CF0
:10010000A305C3053909200CA305C3053909090254
:10011000A305C30517090A02A305C30517090D00A6
:10012000A305C30553091302A305C30517090E024E
:10013000A305C3051709680CA305C3053909200CDD
:10014000A305C3053909000CA305C30517090F0250
:10015000A305C3051709200CA305C30539092B0CFA
:10016000A305C3053909A304C304E60919001B024A
:100170001800A305C3051709190015021800A305E7
:10018000C3051709200CA305C30539091900170277
:100190001800A305C3053909190013021800A305A7
:1001A000C3055C09A10CA305C30539090D00280589
:1001B0001900BB02180028050D001900B50218002F
:1001C00028050D00A305C305360B0D00400CA30543
:1001D000C3054D090D00EF0B1F060D001B001D028E
:1001E000180094014307FB0A030C3F062F00060C7E
:1001F0005F062F000D00A305C3040009030C3F0692
:100200002F00060C5F062F000D006800A305C30435
:1002100014097900010C3E000F0C3A000F0C380055
:10022000060C0200010C07006700FF0C06006600C8
:100230000F0C050065005E00F00C05005F00A305D3
:10024000C305020B18001A00A305C304140B180001
:10025000A304C305620B1800A305C3055909A30530
:10026000C30553093A09FE06E20B1302A305C305B1
:1002700017090E02A305C30517093A0CA305C30508
:1002800039091202A305C30517090D02A305C30509
:100290001709200CA305C305390919001702180016
:1002A000A305C3053909A305C304020BA10CA305CB
:1002B000C3053909190018021800A305C305390937
:1002C000190014021800A305C3055C091800200CCE
:1002D000A305C3053909200C1F07540CA305C3054A
:1002E0003909200CA305C3053909EB09A305C3048B
:1002F0006E0B2D093E06820B5E06EB0B7E06E209B5
:10030000230B0008000C3300000C2E00010C2F0002
:10031000020C3B007C00A305C3056409A305C305CB
:100320005609010C3D001900280418001B000A0C96
:10033000350076001800A805A304C305D309A3055A
:10034000C305E6095C07A90B7C00020C3B00010C0D
:100350003D0090091D02A305C3054D09A305C30572
:1003600056090807B10BA305C30559092D093E0716
:10037000230B47095D091907960B19043B06AE02CA
:10038000BB06AF021C06D8093C06DD09A305C30560
:10039000160B2807960BA305C304900919001C022D
:1003A0003F0018008804A304C305B30922091900FB
:1003B00019023F0018008805A304C305B3091800FB
:1003C0002209960B1B000A0C350076001800A805C0
:1003D000A305C305960BA305C305C70B230B0A0290
:1003E0000F0E2B008903F00EEB01000C8B0143076D
:0E03F000EC0A010C3F00EC0A010C3E00230B4E
:100400000304EA0003060E0A090C2A000304E900AB
:1004100003060E0A6A006900010C3F0010090D0076
:10042000A304C305B20B0D00180048061A0A000CFD
:1004300007000D00010C07000D0000000000000087
:1004400000000000000000000000000000000000AC
:10045000000000000000000000000008570517021F
:1004600026001D095704170226001D09570517020B
:1004700026001D095704170226001D0900087700F1
:1004800057059705170226001D0957049704170200
:1004900026001D0900081D095705970517022600AB
:1004A00000001D09000800006607540A1D09000825
:1004B000790038007700F807730A970417051702C8
:1004C00026001D09970517022600000089091D094D
:1004D0001D099704170226001D091D097803F6025D
:1004E0005B0A19020C0097041704170226001D0965
:1004F000970517022600000089091D091D099704A8
:10050000170226001D091D097803F6025B0A19026D
:100510000C00790326078E0A190500081904000843
:1005200019001B023A0015023200710070001A0215
:100530003100710371037103F80C71011A02F101AA
:100540001A02F1011202F1010000710311023200DE
:1005500003047103700303047103700312020304A4
:10056000F1010306B002AB0C0304F1010306B00273
:100570000A0CF0011800CD091A001B02190003042F
:10058000F1010306B0021A001A021900F00111026B
:10059000390010023C0018000D001A00030410027C
:1005A0003A0013023B001A023C001B023D001C02F1
:1005B0003E001D023F003D033D033D031F0C7D0136
:1005C0003C033C033C031C03E00EFD011F0C7C01BB
:1005D00003049F030F0E3F009E03F00EFF01BE03B6
:1005E0000F0C7E0103041D02FF010306BE021C0264
:1005F000FE0103041F02FB010306BA021E02FA01F8
:1006000018000D00190093031800A305C30517096E
:10061000A304C304E609190013021800A305C305C7
:100620001709A304C304560BEA0C06001A003F097D
:100630004B093F09080C36000C0C5809080C360011
:100640000C0C580953091D092E09080C36001C0C06
:1006500058093000080C3600000C580933005309C3
:100660001D092E09080C36002C0C58093100080C05
:100670003600000C5809340053091D092E09080CD6
:1006800036000C0C58093200080C3600000C5809D2
:10069000350053091D094B0993030F0E33009003D6
:1006A000F00EF30190030F0E300094030F0E340090
:1006B0009103F00EF40191030F0E310095030F0E1C
:1006C00035009203F00EF50192030F0E3200A305E0
:1006D000C305A4091800A304C304280BA304C3057D
:1006E000D3091800A305C305E60919001D0230004F
:1006F0001E0231004806980B190010023D0011023D
:100700003E0003040A0CBE000307FD001E021A008F
:100710000304B4000307F10019001D021A000304CA
:10072000B1000307480514091800A304C304790B9A
:10073000190010023D0011023E0003040A0CFE01E4
:100740000306BD021E021A000304B4000307F100F1
:1007500019001D021A000304B1000306480414091D
:080760001800A304C304790B87
:1008000000000000000000000000000000000000E8
:1008100000000000000000000000000000000000D8
:1008200000000000000000000000000000000000C8
:100830000000000000000000000837006B009F0C63
:100840000600080C2C00F7073B0AAB04CB050B0293
:1008500026000009AB050B02260000090009AB04C5
:100860000B0226000009CB040B02260000097703C7
:10087000EC02230A0008AB04CB040B02260000099B
:10088000AB050B02260000090009AB040B02260091
:100890000009CB040B02260000097703EC02230AAF
:1008A00000086B001F0C0600AB05CB050B022600F1
:1008B0000009CB040B0226000009AB040B02260042
:1008C000000900086B00DF0C0600AB040B022600D9
:1008D0000009AB050B0226000009AB040B02260041
:1008E000000900086B00AB050B0226000009CB05D0
:1008F0000B022600000900086B009F0C0600AB04E9
:10090000CB040B0226000009AB050B0226000009F0
:100910000009AB040B022600000900086B007700F9
:10092000DF0C0600080C2C007703AB040B0226003A
:100930000009AB050B0226000009C607A90A170526
:100940000009AB040B0226000009EC02940A17020E
:100950000C0017040009AB040B0226000009EC028E
:10096000940A17020C001800280451094F030E0EB8
:100970002B000B04A00CCB011D0962090E020F0E07
:100980002E009303F00ECE012B0003046B038806A8
:100990000B050B021D097C0919001F0218001D0917
:1009A0007C0972090D00180051094F030E0E2B002F
:1009B0000B04A00CCB011D0962090E020F0E2E00C4
:1009C0009303F00ECE012B0003044B031D096209B3
:1009D00051094F030E0E2B000B05A00CCB011D0976
:1009E0007C098E0919003C0018007C098E09190049
:0809F0003900180072090D0026
:100A00005109D00C2B000B040B021D096209010CCB
:100A10001D097C09B2030D02D2011D097C09B30333
:100A20000E02D3011D097C090F02070E1D097C0966
:100A3000B5031002D5011D097C09B6031102D601C8
:100A40001D097C0972095109D00C2B000B040B0203
:100A50001D096209010C1D09620972095109D00CB6
:100A60002B000B050B021D097C098E097F0E2D0042
:100A70003200B2030F0C72016D017C098E093F0E2A
:100A80002E003300B3030F0C73016E017C098E0935
:100A9000070E2F007C098E093F0E30003500B5038C
:100AA0000F0C750170017C098E091F0E3100360094
:100AB000B6030F0C760171017C098E097209A3053A
:100AC000C305910B5109D00C2B000B040B021D091F
:100AD0006209010C1D09620972095109D00C2B0031
:100AE0000B050B021D097C098E097F0E2D003200BB
:100AF000B2030F0C72016D017C098E093F0E2E00AE
:100B00003300B3030F0C73016E017C098E09070ECD
:100B10002F001B003D0018007C098E093F0E30009D
:100B20003500B5030F0C750170017C098E091F0E8D
:100B300031003600B6030F0C760171017C098E0975
:100B40007C098E097C098E093F007C098E092A00E8
:100B50007C098E0929007C098E0934007209A304DE
:100B6000C3042B0B5109D00C2B000B040B021D09E5
:100B70006209080C1D097C091F021D097C090A0273
:100B80001D097C0909021D097C091B001D021800B2
:0C0B90001D097C097209A305C305130AA6
:100C00001B00960C30000000F002030A18000008D8
:100C10000000000000000000000000081B00220C83
:100C2000310000091B00F102110A18000008340904
:100C300039090D0008096705080967040809000853
:100C40002C00F00E2B000E090B042B044B040B029E
:100C500027001A098C03F00E2B000B042B044B0405
:100C60000B0227001A0900080F0E2B00300CCB01D5
:100C70000C002C00F00E2B000E090B042B054B046E
:100C80000B0227001A098C03F00E2B000B042B0516
:100C90004B040B0227001A090D007F0E2B00800C5D
:100CA000CB0120090D00020C20090D000E0C2009BB
:100CB0000D000C0C20090D00370097033409390989
:100CC0001702340939090D00010C2009020C200912
:100CD0000D002B0C360072007A000304AB0CB1003F
:100CE0000307F0000A0CB0001002F00E4304F00FEE
:100CF00043077F0A2D0C360070027102B102030413
:100D00000A0CB1000307F000B2021002F00E430417
:100D1000F00F43077F0AF2000A0CD1011B003700D5
:100D200019007000120231000A0CB100F001BA0281
:100D30001102F00E4304F00F4307940AFA000A0C64
:100D4000B0001002B2000D001A00100219003000AD
:100D50001A0013021900310069099A03F00E3300DA
:100D600012020F0EF301160237001B0017023900A2
:100D70001A001102190030001A0014021900310083
:100D800069099A03F00E340012020F0EF4011602E4
:100D900038001B00170238001A0012021900300038
:100DA0001A0015021900310069099A03F00E1B00A0
:100DB0003C00190012020F0E1B00FC0117023A0042
:100DC000190016021B003B0018000D00A305C30408
:100DD000CD091A001B0219000304990031003E00DE
:100DE0000307FC001A001A02190003049C003000DB
:100DF0003D00690912020F0E35001A020F0E3B006A
:100E000018000D00300C2B090E09300C2B090009BD
:100E1000300C2B090E09200C2B09280C200956092F
:100E2000060C20096409A304C304220B1800010C5A
:100E30006F062F000A0C43048E014307210B6E003E
:100E4000B3020E022B009303EB01240C43048B012D
:100E500043072C0B73006E0019000A0C43049B011E
:100E600043067B001800A304C304C90B1800010C3F
:100E70003B007C00640956097D001F06420BA30459
:100E8000C304FC0B1B000A0C350076001800A805F3
:100E90005309130217090E0217093A0C39091202F5
:100EA00017090D021709200C39091502170910023C
:100EB0001709A304C304E6092E0C39091602170901
:100EC00011021709200C3909000C17090F02170924
:100ED0001D024D09560908076B0B5909A304C304E9
:100EE0002D097E07930BA304C3044709A304C3047D
:100EF0005D091907420B19041B06B3023B06AE023B
:100F00007B06B2029B06AD02DB06B502FB06B00211
:100F10003C06B6025C06B102BC06AF02A304C305E0
:100F2000000B1800420BA304C304E50A19001702C2
:100F3000180039091900130218005C091B00190276
:100F400018001709A10C39091900180218003909ED
:100F50001900140218005C09A304C304E6091B006D
:100F6000180218001709200C39091B001B02180071
:100F700039091B001C0218005C091B001A0218002A
:100F80001709A10C39091800A304C304230B010C91
:100F90003B007C00640956097D001B000A0C3500EB
:100FA00076001800A805A304C3046509A304C304BC
:100FB00077091D024D0956090807DC0B5909A304DE
:100FC000C3042D095E07FB0BA304C3044709A30454
:100FD000C3045D091907CD0B190403041B067F0325
:100FE0005B06A9027B06AA02A304C3046509A30544
:0C0FF000C3041009CD0BA304C304EE0BD6
:020FFE00050BE1
:0420200008047E042E
:00000001FF
