:08000000004547204F544B005E
:080008000000000000000000F0
:080010000000000000000000E8
:080018000000000000000000E0
:080020000000000000000000D8
:080028000000000000000000D0
:08003000004547204F544B002E
:080038000000000000000000C0
:08004000004547204F544B001E
:080048000000000000000000B0
:080050002272859000000000FF
:080058000000000000000000A0
:080060002779183000000000B0
:08006800000000000000000090
:080070008A22512688300000AD
:08007800000000000000000080
:08008000248112300000000091
:08008800000000000000000070
:080090002261A3A000000000A2
:08009800000000000000000060
:0800A00042454C43454C0000B1
:0800A800000000000000000050
:0800B000765926000000000053
:0800B800000000000000000040
:0800C00000276289A000000086
:0800C800414E44524549FF037B
:0800D000014953545241FF663F
:0800D80049474F520144FF05A6
:0800E00049474F014445FF06AA
:0800E80056008A222422784010
:0800F00044494D410153FF0892
:0800F800484E59524F4B00091C
:080100008A22513A843000000C
:08010800534153484101FF0B74
:0801100053484E59524FFF0CF9
:080118004B008A2251318630B0
:0801200047414C594101FF0E5B
:08012800534249540152FF0F3C
:080130004142008A22512F1008
:080138006883000000000000D4
:0801400047414C594101FF1237
:08014800534249540144FF1326
:080150004F4D008A22513F14BB
:080158007678000000000000B1
:08016000545952014956FF16E3
:08016800414E014D4958FF17FB
:0801700001444F4D008A2F18D5
:08017800251768690000000072
:08018000434845524E59FF1A95
:080188004156534B4901FF1BD6
:08019000494F5349008A2F1C5E
:0801980025176554000000006A
:0801A0004F4646495301001EC1
:0801A8002261A3A00000000089
:0801B0004154455002008F206C
:0801B800A22513A4760000004B
:0801C0004B4156534556FF2246
:0801C800494800247398A000CF
:0801D000474C4F42494EFF2449
:0801D800015049564F030025B8
:0801E0008A233422576000005D
:0801E80053485459524BFF2704
:0801F000494E002766969000BD
:0801F8004645444F524FFF2918
:08020000560152414204002A9C
:080208002347793000000000DB
:08021000414E44524549FF2C08
:080218000100255A81200000BD
:080220004D4152494E41FF2EF1
:08022800015259424C45FF3C14
:080230004B4F56414C43FF30D7
:08023800594B01564F4CFF31F8
:080240004F44594100253F32F3
:08024800933A000000000000E1
:08025000474F534841010034FF
:080258008A17256966100000F9
:08026000504F5441504FFF368E
:080268005601414E4452FF37DC
:080270004549014400264F3806
:080278004582000000000000B7
:08028000504F54415001FF3AB8
:08028800414E44524549FF3B81
:08029000015200277378700091
:0802980056534B0023894AA0D4
:0802A000564F44495445FF3E4E
:0802A8004C49008A22512F3F4E
:0802B00032880000000000008C
:0802B8004C4F53455601FF4174
:0802C000434400239A6870001A
:0802C800564F4C4F4459FF430F
:0802D0004101434405002F44E5
:0802D8002A5A36000000000064
:0802E00053454D454E01FF4658
:0802E8004D4154564545FF4706
:0802F0005649008A22224F4802
:0802F800426A00000000000052
:0803000053454D454E01FF4A33
:08030800564153014259FF4B1D
:080310005449008A22517F4C80
:08031800376200000000000044
:080320004D4152415401FF4E12
:0803280044008BA8622B6F4F0B
:08033000398300000000000009
:080338004D4152415401FF51F7
:0803400052008BA8622B5F52F2
:08034800A18800000000000084
:080350004D4547014F54FF54D5
:080358004B00C33B7779C000A4
:080360004D4547015A41FF56CB
:080368004B00B33B7779C000A4
:080370005A4149434556FF596B
:08037800534C55534152FF5A4A
:08038000014100227614700017
:0803880001564C414449FF5BA2
:080390004D4952002228918022
:0803980042595847414CFF5D3A
:0803A0005452008A22512F5E25
:0803A8002737000000000000EF
:0803B0004C4142014E49FF607F
:0803B8004E4101564C41FF616A
:0803C00044494D49008A2F62F7
:0803C8002512A17500000000E0
:0803D0004645444F524FFF6403
:0803D8005605444F4D008F65EE
:0803E000A17246115800000053
:0803E8000300276289A0000058
:0803F00000276289A000000053
:0803F8000049A592600000001D
:0804000000980000000000005C
:080408000049A592600000000C
:0804100000276289A000000032
:0804180053544F55414EFF6D96
:080420004B4100277563100039
:0804280000D0000000000000FC
:0804300000D0000000000000F4
:08043800FFFFFFFFFFFFFFFFC4
:08044000FFFFFFFFFFFFFFFFBC
:08044800FFFFFFFFFFFFFFFFB4
:08045000FFFFFFFFFFFFFFFFAC
:0805E800FFFFFFFFFFFE000012
:0805F0000000000000FF0104FF
:0805F800070A0D1115191D1F62
:08060000212326282B2D2F33A6
:0806080035393D404245494DE2
:0806100050535557585C5F631D
:08061800026768696A6B6C6EF1
:080620006F0000000000000063
:080628000000000000000000CA
:080630000000000000000000C2
:080638000000000000000000BA
:080640000000000000000000B2
:080648000000000000000000AA
:0806500000000000000000FFA3
:080658002200FFFFFFFFFFFF7E
:08066000000000000000000092
:0806680000000000000000008A
:08067000000005002D0E2BFF18
:08067800420B397F00B4FFFFC3
:08068000363239353600313203
:0806880033340030FFFFFFFFD7
:0806900000000001040100114B
:080698000000FFFFFFFFFFFF60
:0806A000001412131115161EBF
:0806A8001F202525252100007B
:0806B0000000000000FFFFFF45
:0806B800FFFFFFFFFFFFFFFF42
:0806C0000014000100B4000168
:0806C80000B40A0000910209D0
:0806D0000049A592600599FFA5
:0806D800000100B4FFFF000067
:0806E0000000FFFFFFFFFFFF18
:0806E800FFFFFFFFFFFFFFFF12
:0806F000C6424700003131321F
:0806F8000000000000000000FA
:080700000A4D4F0000313132B7
:080708000031393700313938A6
:080710000552550000313132A1
:080718000000000000000000D9
:080720000A545500003131328A
:08072800003139370031393886
:08073000FF00000000000000C2
:08073800FCFCFCFCFCFCFCD005
:08074000FFFFFFFFFFFFFFFFB9
:0807480077407578404000B4D1
:0807500000E30114018A01B36A
:08075800327FDAFF58E1008155
:08076000002503FF00E0BCB915
:08076800BE544D46345350000D
:0807700000FF829E810E8D8EB8
:080778008BFE9400020B0168E6
:08078000008FC9FFFFFFFFFF1E
:08078800FFFFFFFFFFFFFFFF71
:080790003030373136363500F8
:08079800000000FF000000005A
:0807A000000000009A8FFFFF2A
:0807A800FFFFFFFFFFFFFFFF51
:0807B0000805050108050C080D
:0807B800060905000105B1FF6F
:0807C00000D200D4FFFFFFFF8F
:0807C800FFFF032B00C300102A
:0807D0000000000000FF0BFF18
:0807D80002BC02CD02DA02EBC3
:0807E00002FF0309027F02B5CC
:0807E80002C302D002E402F595
:0807F000000000000000000001
:0807F80000000000F0FF00000A
:00000001FF
