$$ tstcnib2
$$ rdwrbbic
$$
S00600004844521B
S307FFFF800000205A
S306FFFF81093C35
S306FFFF81054035
S307FFFF8A000F0061
S306FFFF8A11015F
S307FFFF8A040F401D
S307FFFF8A0EFFFF64
S307FFFF8A02FFFF70
S307FFFF8A0CFFFF66
S314FFFF90002E7CFFFF920048E78080103C00024165
S314FFFF900FF886031140FFFE0810000167FA1010E5
S314FFFF901E08C000000880000110804CDF01014EE3
S308FFFF902DF8C0661E
S314FFFF9040287890704E7131D490804E714EF8C0E4
S314FFFF904F66383890804E71287890704E7138844E
S309FFFF905E4EF8C0669E
S309FFFF907000000000F8
S307FFFF90800000EA
S30FFFFF90904EB9FFFF91104EF8904016
S30FFFFF91004EB9FFFF91104EF8905095
S314FFFF911021FCFFFF9142007033FC00020040007D
S314FFFF911F0833F900400000FFFF91604279FFFF21
S314FFFF912E9160027CF8FF4A79FFFF916067F800B7
S314FFFF913D7C07004E7548E7C0C033F900400000BE
S314FFFF914CFFFF916033FC0003004000084CDF0379
S308FFFF915B034E7349
S503001AE2
S705FFFF90006C
