:030000000202F603
:020023000126B4
:1000260010980410991D32C0D075D008A699C8B58D
:100036000904D219800604B47C027434C8D0D010E6
:10004600990132C21A32D29F201AFDC29F22C2AC37
:10005600759870438780758921758DFF758BFF753F
:100066008840750934750835C21AC21922E5090493
:10007600B47C027434650824FF22C2D6E50904B4B0
:100086007C027434B5080430D6FA22C000F8E6883B
:1000960009D000D322201AFDD21AF59922D083D096
:1000A600828003119BA3E49370F973A881181886C4
:1000B60083188682E493A30608A68322A8811818CB
:1000C6008683188682E493FAA3E493A3A68208A6FD
:1000D60083F5828A8322E473D38001C3C28CC28DE6
:1000E60011C2F58A8A8CD28C401211C2C3C082C05A
:1000F6008311DCD083D0824003308DF122D083D0AF
:1001060082FAE50EB40A004003D218220493C0E036
:10011600E50E93C0E0EA22A2E13392E2A2E3339233
:10012600E4A2E53392E6C422C2B7A21792B5C2B4DE
:10013600D2B4A21692B5C2B4D2B4A21592B5C2B4C4
:10014600D2B4A21492B5C2B4D2B4A21392B5C2B4B8
:10015600D2B4A21292B5C2B4D2B4A21192B5C2B4AC
:10016600D2B4A21092B5C2B4D2B4D2B7C2B7226387
:100176002206312E632206212ED2B511E1F8CC01DA
:100186008B4004D218A2B522C5210470020520C5F1
:1001960021227A03DAFE221201A01201A91201A677
:1001A6001201A91201AC11E1FC66019C2275F01046
:1001B6008431BBC5F0B40A00400224072430227AF9
:1001C6000031CBC4FAE6547FB43A00400224095405
:1001D6000F082A2231C5F52031C5F5212231DA85ED
:1001E600200AF50B22900000E4F526F525F524E417
:1001F600932526F52650080525E52570020524A336
:10020600E58324F870E9782480067825800278262C
:10021600E631B3D2D5C5F0119B1180B4630810D571
:10022600F408B827EB22B8260330D502D21822D21A
:100236001B22C21B22301B02019B227F00782474E2
:100246003E513B1180FAB420004009B8330280F3D6
:10025600F60880EDB40A028003B40D05513B760022
:1002660022B41D027408B40808B8240280D5188088
:10027600D0B41C09E6B83301E470D680C6B41F03B7
:100286000F800BB41EBD1F80057408513B18B8249F
:10029600F8D21B9006DB8FF0E493D5E00C25F070C6
:1002A600049FFF80EE7F0180EADF10FFA3E493F650
:1002B60008513BDFF77600AFF0808824032582F5EE
:1002C6008250D5058380D19006DB7824E493A3FA87
:1002D600E4DA090493C0E0E493C0E0229366545F35
:1002E60008A360EDEA042582F58250DE058380DAF4
:1002F600C2AF438E017590FF75B0FF75D000758152
:100306000E752200312E1154750E0A5323F675A868
:100316009011E14C0000734012D2B77C1311E14CEE
:100326000000734006DCF6C2B780E6C2B751415101
:10033600CD74661018027461119B80D5750E00E4A9
:10034600F520F5217590FF53B0F3752202312E4347
:10035600B00CD214312EE4F50DF50CE520B50C06E3
:10036600E521B50D012240DC3175050DE50D70EB7B
:10037600050C80E7752232312EC2B2C214312E31FD
:10038600A0D214312E3198D2B222600AB4011C7563
:0E0396002272312E71A17522FA312EC2B2C22E
:1003A40014312ED214312E3198D2B221A9D218226E
:1003B400D216312EE5F0311DF590C2B2C214312EA1
:1003C400D214312E3198D2B2317F61D77161752246
:1003D400128005716175229A7590FF312EE5902186
:1003E4001D53B0F375223B312ED2B38B903175EB94
:1003F400C5F0FBD2D520F54D30F00CC215312ED20C
:1004040015312E31A08073C21320F14E20F24BE53A
:1004140020C320F70420F4011392D520F30A311DE0
:10042400F590D216312E3175E52120F70820F40518
:10043400A2D51392D520F322311DF590C216312E88
:10044400317520F3157590FFA2D59216C214312E82
:10045400E590D214312E311D8020D217312EEB318C
:100464001DF5903175A2D59216312EC215312E305C
:10047400F10231ACD215312E317F53B0F38BF0221F
:100484007B0161E5B63F0E7B2071E5F4A2E53354B0
:1004940003F526411431C5F41392E5F5F07B0261AE
:1004A400E5B40E137B2071E5F43323B0E033540339
:1004B4002430119B020080700575F0FD8006B401A4
:1004C4000875F0F97B040203E5D218227B0871E574
:1004D4007B4061E57B8871E57BC061E57B1061E56C
:1004E400D2B5C2B4D2B4D2B7C2B7C2B5C2B4D2B410
:1004F400C2B4D2B4D2B7C2B7227A0833929291E48A
:1005040091E4D29091E491E4A291C290DAED332285
:1005140091EE7590FE53B0F343B00C11E1B80004B2
:10052400E453B0F374AC91FD745391FD91FD81FDDE
:10053400A20892E391FDE520C31391FDE521A200F9
:100544001381FD91FDE52091FDE52181FDE5F0910B
:10055400FD11DEF199E5F0227420B13481FD74407F
:10056400B134B151B4FF02D218B15C208D03B5F09F
:10057400F82274A0B14781FD74C0B147B151600342
:10058400B4FF0591E4308DFBB176208D03B5F0F80E
:10059400227430B14781FD74AC752080B14791FD60
:1005A4000201A37458B1470204FDB63F0DB1A7F48C
:1005B400A2E5335403F52602021431C5F47520BEB6
:1005C400A2E1920074ACB1A022B40E11B1A7F4332D
:1005D40023B0E03354032430119B020080B400059F
:1005E4007520FD80DFB401057520F980D7D218226B
:1005F400310303D704D404DC055C0576077831DACB
:10060400B1F4119B318E1180B40A0122B40DF12290
:10061400310303D004E004E00595059575200075C9
:100624002100D114F5265114318E646360F422E460
:10063400F520F521B1F4B4FF0C318EE521B50BF4AE
:10064400E520B50AEF8520258521264110E4F5260D
:10065400F525F524F521F520B1F42526F526E43514
:1006640025F525E43524F524318EE521B50BE9E59E
:1006740020B50AE4410C310303B404D004D8056264
:10068400057C077831DA1180B4A5051180B4A51969
:10069400F5F0B1F4B5F0087463119B318E80E7D1A5
:1006A4007AB5F0033018F0D218223103037A0484A7
:1006B4000484059B059B0778310307780488048824
:1006C40005AE05AE0778E624CF3103039004A504F4
:1006D400A505CD05CD07780550524F47068805522C
:1006E400454144060206434845434B065106424CE5
:1006F400414E4B06330552534947062006455241A5
:10070400534506AE054C4F434B06CA054655534563
:0E07140006BC064431303531034207444531FE
:100722003230300787064431323030078308445470
:10073200494E593232078B09444554494E59323297
:1007420007900553495A4501E304553556078A0572
:1007520055313256078A055645525301EB0452452C
:1007620053077B04454F4E023505454F4646023836
:10077200010775E66002D218227461119B114C01C7
:1007820000750E0222750E0422750E06A114750E56
:1007920008A1147A7977736B5C3E028A99B8F67273
:1007A200695733EB5C3D008691A7D42EE14816B120
:1007B200E85632EA5938F56F634B1CBE028997B48A
:1007C200EE614713ABDC3DFF848D9FC30C9DC005DA
:1007D20090A6D229D835F066522AD937F46D5F44F3
:1007E2000DA0C612A9D734EE624917B3EB5B3BFCEE
:0E07F2007E828998B6F2695835EF644E22CAAD
:00000001FF
