:020000001028C6
:08000800AE00030EAF004D2015
:080010002F0E8300AE0E2E0E30
:020018000900DD
:0800200083166400E830810042
:08002800FE308500FF30860068
:080030008312810185018601A4
:080038000C3089008316081446
:080040008312080898000C303F
:080048009A000C3084008901CC
:08005000090892208000840AD7
:08005800890A9A0B282883167F
:08006000081208118312903010
:080068008B008316881835286F
:080070000812081183121B1C89
:0800780035289B010C308900C2
:0800800018088800831608151A
:080088008B1355308900AA30EA
:08009000890088148B1783120C
:0800980035288B1852281030A6
:0800A0008B0008008312051417
:0800A8008618622801089F0080
:0800B000810155301F02031D00
:0800B8006028023098001B14BF
:0800C0008B10080001089900F3
:0800C8009C009D0060301C0249
:0800D00003198128031881289F
:0800D8009D0C9D0C9D0C0F30E6
:0800E0009D051D080C3E840083
:0800E80000089E0007309C0592
:0800F00003197D289E0D9C0BF5
:0800F8007A289E1F05108B10F1
:080100000800861F8928861CF7
:080108008928980A1B148B10D2
:08011000080060309902180894
:080118009902031C9028051058
:080120008B10080082078134F6
:0801280042340034113422348A
:080130003334443455346634C5
:0601380077341134843419
:084000004200420042004200B0
:02400E000100AF
:00000001FF
