:10000000010A46032F006F034F03F00E2500A304DF
:100010000400480C0200FF0C060006070D0A060645
:100020000F0A01022E00110CAE0003042E03590C1E
:100030002D000607190A61000607110AF60C0607CB
:10004000110A81000607110A03071C0AED00430785
:100050001B0A0607290A0602FE0C06001F0CA0094F
:10006000000CA009100CA009400CA009000CA0096C
:10007000040CA009000CA009010CA009640CA00943
:10008000010CA009010CA0092E0CA009FF0C060010
:100090001A0C2C009209EC0043074A0AC80906070B
:1000A0004F0A0602FE0C06001F0CA009000CA00956
:1000B000100CA0097F0CA009020CA009720CA00969
:1000C000C8091F0CA009000CA009100CA009400CC5
:1000D000A009000CA0090A0CA009000CA009010C41
:1000E000A009D50CA009020CA009000CA009100C55
:1000F000A009B10CA009C80CA009010CA009010CB1
:10010000A009020CA009F80CA009FF0C0600390C8C
:100110002C009209EC004307890A06078D0A0602A3
:1001200003000B0A0607920A0606940A61000B0CEC
:1001300029000E02C2096100E9004307990A00087C
:100140002A006B00080C2900660061000E02C2093B
:1001500061002A030307AF0A0605AB02B00A0604D2
:100160000E02C2096100E9004307A90A0B07BA0A97
:100170000604BB0A06050E02C209610006050E024E
:10018000C20900082700070281000307C30A00080C
:10019000FA0C2D000E02C209ED004307CA0A00083E
:1001A000FF0FFF0FFF0FFF0FFF0FFF0FFF0FFF0FDF
:1001B000FF0FFF0FFF0FFF0FFF0FFF0FFF0FFF0FCF
:1001C000FF0FFF0FFF0FFF0FFF0FFF0FFF0FFF0FBF
:1001D000FF0FFF0FFF0FFF0FFF0FFF0FFF0FFF0FAF
:021FFE00FA0FD8
:00000001FF
