:10000000010A46032F006F034F03F00E2500A304DF
:100010000400480C0200FF0C060006070D0A060645
:100020000F0A01022E00110CAE0003042E03590C1E
:100030002D000607190A61000607110AF60C0607CB
:10004000110A81000607110A03071C0AED00430785
:100050001B0A0607290A0602FE0C06001F0CAE0941
:10006000000CAE09100CAE09400CAE09000CAE0934
:10007000040CAE09000CAE09010CAE09640CAE090B
:10008000010CAE09010CAE092E0CAE09FF0C0600E6
:100090001A0C2C00A009EC0043074A0AD6090607EF
:1000A0004F0A0602FE0C06001F0CAE09000CAE093A
:1000B000100CAE097F0CAE09020CAE09000CAE09A3
:1000C000000CAE09000CAE09000CAE09000CAE0924
:1000D000000CAE09000CAE09000CAE09D6091F0CCD
:1000E000AE09000CAE09100CAE09400CAE09000CB4
:1000F000AE090A0CAE09000CAE09010CAE09D50C14
:10010000AE09020CAE09000CAE09100CAE09B10C20
:10011000AE09AC0CAE09010CAE09010CAE090C0C19
:10012000AE09920CAE09FF0C0600390C2C00A00998
:10013000EC004307970A06079B0A060203000B0A16
:100140000607A00A0606A20A61000B0C29000E028F
:10015000D0096100E9004307A70A00082A006B00E4
:10016000080C2900660061000E02D00961002A0314
:100170000307BD0A0605AB02BE0A06040E02D0093B
:100180006100E9004307B70A0B07C80A0604C90A59
:1001900006050E02D009610006050E02D00900080E
:1001A0002700070281000307D10A0008FA0C2D007E
:0C01B0000E02D009ED004307D80A000839
:021FFE000200DF
:00000001FF
