:02000000050AEF
:08000800050A25006B00090C3C
:100010000600C20C020046048307E20A0400580CE2
:10002000B6099F09120243040304490F4307050A56
:100030009F09120243040304520F4307050A4F0CA1
:10004000B6094B0CB609910904006606240A610042
:1000500066072D0A010235006F0A0400E107280A2D
:10006000C107280A04006607330A61000400660617
:100070003D0A0102610035001C0BE107370A04004C
:100080006606400A61006607430A01026100350006
:1000900003041503F50104007B007A007900780061
:1000A00077007600300C3400590A6607550A610063
:1000B00004000304010295004307590A030466077C
:1000C000650A61006606620A030504007603770389
:1000D000780379037A037B03F402550AD40A0400F7
:1000E000F506F10AD506F10A610004006606760AF3
:1000F0006100040066077A0A0102610035003503D9
:1001000004006606810A01026100F5010400660729
:10011000870A4B0A66068A0A010261003500350328
:100120004B0AC70C020004006607910A6100040034
:100130006607910AE107970AC20C02000008080C42
:100140002F00720004000607A20A2E0C3300F302EF
:10015000A70A030432030607F2051F0C3300F3025B
:10016000AF0A0000EF02A90A1202000804003100E1
:10017000080C2F0046051F0C3300F302BD0A0304D0
:10018000310303064604030746050000EF02BB0ADD
:100190001F0C3300F302CA0A46043300F302CE0AEE
:1001A0003300F302D10A000804001B02B6091A0248
:1001B000B6091902B6091802B6091702B6091602DD
:1001C000B609230A04000304260C94000306230A3C
:1001D00076037703780379037A037B03F402E80A52
:1001E000D40A040003041503F501500C3C007B0005
:1001F0007A007900780077007600310C34006606CA
:10020000FF0A040061000304010295004307030B89
:1002100066070E0B66060A0B0304110B66070E0B2E
:1002200003056100040076037703780379037A03FA
:100230007B03F402030BD40A040003043503D50145
:100240003503F501530C3C007B007A0079007800FF
:1002500077007600300C3400310B66062D0B610000
:1002600004000304010295004307310B03046606F2
:100270003D0B610066073A0B030504007603770324
:0E028000780379037A037B03F4022D0BD40A72
:021FFE00ED0FE5
:00000001FF
